:10080000E4F508F509F50AF50B750C01750D017590
:100810000E01750F017510017F38120A8D7F0C12C1
:100820000A8D7F01120A8D7F06120A8DAF0CEF33FD
:1008300095E04F70083093050508750C01AF0DEF7A
:100840003395E04F70083094050509750D01AF0E22
:10085000EF3395E04F7008309505050A750E01AF2E
:100860000FEF3395E04F7008309605050B750F01BB
:10087000AF10EF3395E04F600302093D209703026C
:07088000093D7F01120A8D02
:10088700E4F513E508D39509400875114185081269
:100897008006751142850912E50AD395124006753F
:1008A7001143850A12E50BD395124006751144854D
:1008B7000B12E508B512020513E509B51202051377
:1008C700E50AB512020513E50BB512020513D3E5C8
:1008D7001394017480948040137F84120A8D7F548F
:1008E700120A6A7F49120A6A7F4580457F81120A88
:1008F7008D7F57120A6A7F49120A6A7F4E120A6A67
:100907007F4E120A6A7F45120A6A7F52120A6A7F6D
:100917003A120A6AE511B441047F418014E511B423
:1009270042047F42800BE511B443047F4380027F7A
:0409370044120A6AF2
:10093B0080FE7F80120A8D7F41120A6A7F3A120A6B
:10094B006AE508120A63E50875F00A120A66E508FB
:10095B0075F00A84E5F02430FF120A6A7F88120AC8
:10096B008D7F42120A6A7F3A120A6AE509120A63FC
:10097B00E50975F00A120A66E50975F00A84E5F0D7
:10098B002430FF120A6A7FC0120A8D7F43120A6A53
:10099B007F3A120A6AE50A120A63E50A75F00A122F
:1009AB000A66E50A75F00A84E5F02430FF120A6A3C
:1009BB007FC8120A8D7F44120A6A7F3A120A6AE5CF
:1009CB000B120A63E50B75F00A120A66E50B75F05C
:1009DB000A84E5F02430FF120A6A7F80120A8DAF79
:1009EB000CEF3395E04F6006A293E433F50CAF0D9B
:1009FB00EF3395E04F6006A294E433F50DAF0EEFA5
:100A0B003395E04F6006A295E433F50EAF0FEF334D
:100A1B0095E04F6006A296E433F50FAF10EF3395D8
:100A2B00E04F700302082CA297E433F51002082C58
:100A8D008F14120A7A8514A0C290120A3BC29222C8
:070A630075F064842430FFEC
:100A6A008F14120A7A8514A0D290120A3BC29222DB
:100A7A00D2A7C290D29130A709C292120A3FD2924B
:030A8A0080F422D3
:080A3B00C291D2927F017E00FE
:100A4300E4FDFCC3ED9FEC9E5015E4FBFA0BBB00E9
:0F0A5300010ABA04F8BBFBF50DBD00010C80E4ED
:010A62002271
:03000000020A9D54
:0C0A9D00787FE4F6D8FD75811402080093
:00000001FF
